:020000040800F2
:1000000060070020CD010008DD060008D9050008C2
:10001000D90600087D020008F70B00080000000068
:100020000000000000000000000000005D08000863
:1000300005030008000000006507000871090008BA
:10004000E7010008E7010008E7010008E7010008F0
:10005000E7010008E7010008E7010008E7010008E0
:10006000E7010008E701000839030008E70100087C
:10007000E7010008E7010008E7010008E7010008C0
:10008000E7010008E7010008E7010008E7010008B0
:10009000E7010008E7010008E7010008E7010008A0
:1000A000E7010008E7010008E7010008E701000890
:1000B000E7010008E7010008E7010008E701000880
:1000C000E7010008E7010008E7010008E701000870
:1000D000E7010008D5090008E7010008E70100086A
:1000E00009030008E7010008E7010008E70100082C
:1000F000E7010008E7010008E7010008E701000840
:10010000E7010008E7010008E7010008E70100082F
:10011000E7010008E7010008E7010008E70100081F
:10012000E7010008E7010008E7010008E70100080F
:1001300000F002F800F03AF80AA090E8000C8244BF
:100140008344AAF10107DA4501D100F02FF8AFF29C
:10015000090EBAE80F0013F0010F18BFFB1A43F0A5
:10016000010318474C0D00006C0D0000103A24BF2D
:1001700078C878C1FAD8520724BF30C830C144BF0C
:1001800004680C607047000000230024002500264E
:10019000103A28BF78C1FBD8520728BF30C148BFEA
:1001A0000B6070471FB51FBD10B510BD00F033F8D0
:1001B0001146FFF7F7FF00F0C9FD00F051F803B456
:1001C000FFF7F2FF03BC00F076FD0000094880470E
:1001D00009480047FEE7FEE7FEE7FEE7FEE7FEE729
:1001E000FEE7FEE7FEE7FEE704480549054A064B41
:1001F0007047000075090008310100086001002007
:1002000060070020600300206003002070477047F3
:10021000704770477047754600F02CF8AE460500F1
:100220006946534620F00700854618B020B5FFF711
:10023000DBFFBDE820404FF000064FF000074FF015
:1002400000084FF0000B21F00701AC46ACE8C009F4
:10025000ACE8C009ACE8C009ACE8C0098D467047FD
:1002600010B50446AFF300802046BDE81040FFF70C
:10027000A6BF000000487047FC00002000BFFEE75A
:1002800008B54FF6FF70ADF8000004208DF80300AC
:1002900003208DF802006946184800F003F94FF476
:1002A0000051174800F092F94FF48041144800F0D3
:1002B0008FF94FF40041124800F088F94FF40041E3
:1002C0000F4800F085F900BF80210C4800F075F957
:1002D0000128F9D04FF40041094800F077F94FF6B2
:1002E000FF70ADF8000010208DF8030003208DF89A
:1002F00002006946014800F0D5F808BD0018014029
:10030000001401407047000010B50A2000F0F8FC0E
:100310000848006810B900F087F905E00548006852
:10032000012801D100F0BCF94FF4005000F01AF898
:1003300010BD00003401224210B50A2000F0E0FC9C
:100340000748006810B900F09FF905E0044800680C
:10035000012801D100F0A4F9102000F003F810BD2D
:100360001001224201490860704700001404014056
:10037000002123498279002A3AD00A46126803688C
:100380009A430B461A600A1D126803689A430B1DB4
:100390001A60027911440A6803681A430A60184A0D
:1003A0000832126803689A43154B08331A601A1D05
:1003B000126803689A43124B0C331A604279102A70
:1003C0000ED11A1F126803681A430D4B08331A60C6
:1003D0001A1D126803681A43094B0C331A600DE0AA
:1003E0000749427911440A6803681A430A6005E024
:1003F000027911440A6803689A430A607047000052
:100400000004014008B50121612000F0ADF94FF66C
:10041000FF70ADF8000010208DF8030003208DF868
:10042000020069460D4800F03DF84FF40050ADF869
:10043000000069460A4800F035F84FF48040ADF8F6
:1004400000006946064800F02DF84FF40040ADF872
:1004500000006946024800F025F808BD0018014078
:100460000014014030B500228B071C0F0F2303FA44
:1004700004F20B4B8C1053F824309343084C8D102E
:1004800044F8253023468C1053F824308C07240F71
:1004900000FA04F42343024C8D1044F8253030BD9B
:1004A000080001402DE9F041024600250026002009
:1004B00000230024002791F803C00CF00F0591F8E9
:1004C00003C00CF0100CBCF1000F03D091F802C077
:1004D0004CEA050591F800C0BCF1000F31D014685A
:1004E00000202BE04FF0010C0CFA00F3B1F800C033
:1004F0000CEA03069E4220D183004FF00F0C0CFA49
:1005000003F7BC4305FA03FC4CEA040491F803C06A
:10051000BCF1280F06D14FF0010C0CFA00FCC2F818
:1005200014C00AE091F803C0BCF1480F05D14FF0A8
:10053000010C0CFA00FCC2F810C0401C0828D1D3F2
:100540001460B1F800C0BCF1FF0F34DD5468002026
:100550002EE000F1080C4FF0010808FA0CF3B1F896
:1005600000C00CEA03069E4221D183004FF00F0C1D
:100570000CFA03F7BC4305FA03FC4CEA040491F8B7
:1005800003C0BCF1280F05D100F1080C08FA0CF8E3
:10059000C2F8148091F803C0BCF1480F07D100F1F4
:1005A000080C4FF0010808FA0CF8C2F81080401C43
:1005B0000828CED35460BDE8F0810246002093683D
:1005C0000B400BB1012000E00020704741617047F3
:1005D00001617047C160704700BFFEE708B50121A7
:1005E000102000F0C1F84FF40050ADF80000482092
:1005F0008DF8030003208DF8020069460948FFF7D3
:1006000051FF1020ADF8000048208DF803000320B2
:100610008DF8020069460348FFF744FF00F0C0FB75
:1006200008BD00000010014010B508210348FFF785
:10063000CDFF04210148FFF7CBFF10BD00080140AA
:1006400008B50121042000F08FF80420ADF8000067
:1006500010208DF8030003208DF802006946094838
:10066000FFF720FF0820ADF8000069460548FFF7B6
:1006700019FF04210348FFF7A9FF08210148FFF7EC
:10068000A5FF08BD0008014010B504210348FFF78D
:100690009DFF08210148FFF79BFF10BD00080140A6
:1006A00010B504210348FFF791FF08210148FFF727
:1006B0008DFF10BD0008014010B5FFF7A3FE3420E8
:1006C00000F09CFA0C2000F099FA062000F096FA4F
:1006D000012000F093FA10BD00BFFEE77047000054
:1006E00070B5002100230F22C47804B3154C246890
:1006F00004F4E064C4F5E064210AC1F10403CA40D3
:10070000447804FA03F184781440214309010E4C23
:100710000678A155047804F01F050124AC40057843
:100720006D11AD0005F1E025C5F8004109E0047840
:1007300004F01F050124AC40044D0678761145F8FD
:10074000264070BD0CED00E000E400E080E100E038
:1007500002490143024A1160704700000000FA0597
:100760000CED00E07047000029B1064A926902438F
:10077000044B9A6104E0034A92698243014B9A61F7
:10078000704700000010024030B500210022002414
:1007900000232D4D6D6805F00C0121B1042905D011
:1007A000082923D105E0294D056022E0274D056089
:1007B0001FE0254D6D6805F47012234D6D6805F43A
:1007C0008034022505EB92421CB9214D554305604A
:1007D0000BE01D4D6D6805F400351DB11C4D5543F2
:1007E000056002E0194D5543056002E0174D0560B4
:1007F00000BF00BF144D6D6805F0F0010909154DEB
:100800006B5C0568DD4045600F4D6D6805F4E06187
:10081000090A104D6B5C4568DD4085600A4D6D68C6
:1008200005F46051C90A0B4D6B5C4568DD40C5603D
:10083000054D6D6805F44041890B074D6B5CC5683B
:10084000B5FBF3F5056130BD0010024000127A00DF
:1008500000093D001400002024000020704710B55E
:1008600000F002F810BD00000CB5002001900090CF
:100870003348006840F480303149086000BF304898
:10088000006800F4003000900198401C019000982E
:1008900018B90198B0F5A06FF1D12948006800F4AB
:1008A000003010B10120009001E00020009000987D
:1008B000012843D12348006840F010002149086016
:1008C0000846006820F0030008600846006840F011
:1008D000020008601A4840681949486008464068A4
:1008E00048600846406840F48060486008464068B8
:1008F00020F47C1048600846406840F4E8104860E6
:100900000846006840F08070086000BF0C4800682E
:1009100000F000700028F9D00948406820F003007A
:10092000074948600846406840F00200486000BF40
:100930000348406800F00C000828F9D10CBD000005
:100940000010024000200240042808D14FF0E021AE
:10095000096941F004014FF0E022116107E04FF016
:10096000E021096921F004014FF0E0221161704794
:100970007047000010B51348006840F001001149AD
:10098000086008464068104908400E49486008461B
:1009900000680E4908400B4908600846006820F4CA
:1009A000802008600846406820F4FE0048604FF44C
:1009B0001F008860FFF753FF4FF000600449086094
:1009C00010BD0000001002400000FFF8FFFFF6FE1F
:1009D00008ED00E010B540F225511D4800F04AF83E
:1009E00010B31B4800F002F9C4B21A48008800F4A2
:1009F0000040C8B91748008800F4804060B10A2C54
:100A000003D000201349088020E01248008840F4F9
:100A100000401049088019E00D2C06D10D480088CF
:100A200040F480400B49088010E00A480088C0F379
:100A30000D0009490C5407480088401C05490880EE
:100A400008460088C72801DD0020088010BD00008E
:100A500000380140300000203400002021B182899C
:100A600042F40052828104E082894DF6FF731A40FD
:100A70008281704770B502460024002300250020C3
:100A800040F66A16B14200D100BFC1F3421501F031
:100A90001F03012606FA03F3012D02D19689334084
:100AA00006E0022D02D1168A334001E0968A3340D7
:100AB0000C12012606FA04F41688344013B10CB166
:100AC000012000E0002070BDF0B5034600240026A0
:100AD0000025002040F66A17B94200D100BF184631
:100AE000C1F3421401F01F06012707FA06F5012C95
:100AF00001D10C3004E0022C01D1103000E01430A0
:100B00001AB107682F43076002E00768AF43076028
:100B1000F0BD00002DE9F04786B005460E460024E2
:100B2000A24600BFA1460027B08900B100BF2F46F2
:100B30002C8A4CF6FF700440F08804432C82AC8968
:100B40004EF6F3100440B088318908437189084398
:100B50000443AC81AC8A4FF6FF400440B0890443A3
:100B6000AC8201A8FFF710FE1F48874202D1DDF8D2
:100B700010A001E0DDF80CA0A88900F4004040B10D
:100B80000AEBCA0000EB0A1031684900B0FBF1F82B
:100B900007E00AEBCA0000EB0A1031688900B0FBDD
:100BA000F1F86420B8FBF0F004012009642101FB96
:100BB0001089A88900F4004040B1322000EBC90040
:100BC000B0FBF1F000F00700044308E0322000EB36
:100BD00009106421B0FBF1F000F00F0004432C81F8
:100BE00006B0BDE8F0870000003801400146888863
:100BF000C0F30800704700BFFEE7000010B50446D0
:100C0000FFF73EFB4FF400510D48FFF7DFFC4FF4B8
:100C100080410B48FFF7DAFC4FF400410848FFF72A
:100C2000D5FC4FF400410648FFF7D2FC21460548A9
:100C3000FFF7D0FC4FF400410148FFF7C7FC10BD9F
:100C4000001401400018014010B50446FFF718FBDE
:100C50004FF400510E48FFF7BBFC4FF480410C48A5
:100C6000FFF7B4FC4FF400410948FFF7AFFC4FF425
:100C700000410748FFF7ACFC04F47F410548FFF74B
:100C8000A9FC4FF400410248FFF7A0FC10BD000092
:100C9000001401400018014070B505460C46284676
:100CA000FFF7ACFF03E014F8010BFFF7CDFF20784E
:100CB0000028F8D170BD00BF7047000010B56FF07C
:100CC0000400FFF741FE0A4800680A49B0FBF1F052
:100CD000094908700846007800EB4001C1EBC010DC
:100CE0004FF6FF7101EAC0000449088010BD000002
:100CF0000000002000127A00280000202A000020B6
:100D00000146114A12884A434FF0E0235A610022FB
:100D10009A611A46126942F001021A6100BF4FF04F
:100D2000E022106900F001021AB100F48032002ABA
:100D3000F5D04FF0E022126922F001024FF0E023DB
:100D40001A6100229A6170472A000020FFF7B6FF5F
:100D50004FF4A060FFF7FCFC4FF4E13000F058F8CE
:100D6000FFF7AAFC06A18020FFF796FFFFF768FCBB
:100D7000FFF734FC03E04FF47A70FFF7C1FFFAE7A6
:100D80005468652073797374656D20697320696E8A
:100D9000697469616C697A696E672E2E2E00000095
:100DA0000EB501210846FFF7DFFC04210220FFF702
:100DB00059FB1020019001208DF80A0000208DF8C9
:100DC000080010208DF8090001A8FFF7D1FA0D21C5
:100DD0000220FFF747FB4FF40050019001A8FFF7F6
:100DE000C7FA0A208DF8000001208DF803000220C8
:100DF0008DF8010000208DF802006846FFF770FCB6
:100E000028208DF800006846FFF76AFC0EBD000040
:100E100010B586B00446012144F20400FFF7A4FC9B
:100E20004FF40070ADF8140003208DF81600182060
:100E30008DF8170005A91C48FFF734FB4FF48060BC
:100E4000ADF8140004208DF8170005A91648FFF727
:100E500029FB25208DF8000003208DF801008DF876
:100E6000020001208DF803006846FFF739FC019469
:100E70000020ADF80800ADF80A00ADF80C00ADF8A0
:100E800010000C20ADF80E0001A90848FFF742FE43
:100E9000012240F225510548FFF716FE01210348C3
:100EA000FFF7DCFD06B010BD00080140003801402E
:100EB000D00E000800000020340000006C01000883
:100EC000040F0008340000202C07000088010008EF
:100ED00000A24A0400000000000000000102030418
:100EE00006070809000000000102030401020304D0
:100EF00006070809020406080000000000000000C0
:040F000000000000ED
:0400000508000131BD
:00000001FF
