:020000040800F2
:1000000060070020CD01000839070008010600083C
:10001000350700087D020008530C000800000000AE
:10002000000000000000000000000000B908000807
:100030000503000800000000C1070008CD09000802
:10004000E7010008E7010008E7010008E7010008F0
:10005000E7010008E7010008E7010008E7010008E0
:10006000E7010008E701000861030008E701000854
:10007000E7010008E7010008E7010008E7010008C0
:10008000E7010008E7010008E7010008E7010008B0
:10009000E7010008E7010008E7010008E7010008A0
:1000A000E7010008E7010008E7010008E701000890
:1000B000E7010008E7010008E7010008E701000880
:1000C000E7010008E7010008E7010008E701000870
:1000D000E7010008310A0008E7010008E70100080D
:1000E00009030008E7010008E7010008E70100082C
:1000F000E7010008E7010008E7010008E701000840
:10010000E7010008E7010008E7010008E70100082F
:10011000E7010008E7010008E7010008E70100081F
:10012000E7010008E7010008E7010008E70100080F
:1001300000F002F800F03AF80AA090E8000C8244BF
:100140008344AAF10107DA4501D100F02FF8AFF29C
:10015000090EBAE80F0013F0010F18BFFB1A43F0A5
:1001600001031847EC0D00000C0E0000103A24BFEC
:1001700078C878C1FAD8520724BF30C830C144BF0C
:1001800004680C607047000000230024002500264E
:10019000103A28BF78C1FBD8520728BF30C148BFEA
:1001A0000B6070471FB51FBD10B510BD00F033F8D0
:1001B0001146FFF7F7FF00F0F7FD00F051F803B428
:1001C000FFF7F2FF03BC00F0A4FD000009488047E0
:1001D00009480047FEE7FEE7FEE7FEE7FEE7FEE729
:1001E000FEE7FEE7FEE7FEE704480549054A064B41
:1001F00070470000D10900083101000860010020AB
:1002000060070020600300206003002070477047F3
:10021000704770477047754600F02CF8AE460500F1
:100220006946534620F00700854618B020B5FFF711
:10023000DBFFBDE820404FF000064FF000074FF015
:1002400000084FF0000B21F00701AC46ACE8C009F4
:10025000ACE8C009ACE8C009ACE8C0098D467047FD
:1002600010B50446AFF300802046BDE81040FFF70C
:10027000A6BF0000004870470001002000BFFEE755
:1002800008B54FF6FF70ADF8000004208DF80300AC
:1002900003208DF802006946184800F017F94FF462
:1002A0000051174800F0A6F94FF48041144800F0BF
:1002B000A3F94FF40041124800F09CF94FF40041BB
:1002C0000F4800F099F900BF80210C4800F089F92F
:1002D0000128F9D04FF40041094800F08BF94FF69E
:1002E000FF70ADF8000010208DF8030003208DF89A
:1002F00002006946014800F0E9F808BD0018014015
:10030000001401407047000010B50A2000F026FDDF
:100310001148006868B940F2145000F01FFD0E4803
:10032000006808B10C4800684FF4806000F02EF8B7
:1003300010BD0A48006810B900F09EF905E00748B2
:100340000068012801D100F0D3F94FF4005000F00B
:100350001DF800BFECE70000288121423401224251
:1003600010B50A2000F0FAFC0748006810B900F048
:10037000B3F905E004480068012801D100F0B8F99C
:10038000102000F003F810BD10012242014908605E
:100390007047000014040140002123498279002A9B
:1003A0003AD00A46126803689A430B461A600A1D3F
:1003B000126803689A430B1D1A60027911440A6897
:1003C00003681A430A60184A0832126803689A439D
:1003D000154B08331A601A1D126803689A43124BB2
:1003E0000C331A604279102A0ED11A1F1268036862
:1003F0001A430D4B08331A601A1D126803681A431A
:10040000094B0C331A600DE00749427911440A6820
:1004100003681A430A6005E0027911440A68036818
:100420009A430A60704700000004014008B50121AA
:10043000612000F0C7F94FF6FF70ADF80000102002
:100440008DF8030003208DF8020069460D4800F086
:100450003DF84FF40050ADF8000069460A4800F03E
:1004600035F84FF48040ADF800006946064800F0CA
:100470002DF84FF40040ADF800006946024800F046
:1004800025F808BD001801400014014030B50022D5
:100490008B071C0F0F2303FA04F20B4B8C1053F83D
:1004A00024309343084C8D1044F8253023468C109B
:1004B00053F824308C07240F00FA04F42343024C31
:1004C0008D1044F8253030BD080001402DE9F04181
:1004D000024600250026002000230024002791F872
:1004E00003C00CF00F0591F803C00CF0100CBCF128
:1004F000000F03D091F802C04CEA050591F800C046
:10050000BCF1000F31D0146800202BE04FF0010C3B
:100510000CFA00F3B1F800C00CEA03069E4220D1A9
:1005200083004FF00F0C0CFA03F7BC4305FA03FCF1
:100530004CEA040491F803C0BCF1280F06D14FF037
:10054000010C0CFA00FCC2F814C00AE091F803C0D8
:10055000BCF1480F05D14FF0010C0CFA00FCC2F8B9
:1005600010C0401C0828D1D31460B1F800C0BCF101
:10057000FF0F34DD546800202EE000F1080C4FF02E
:10058000010808FA0CF3B1F800C00CEA03069E4219
:1005900021D183004FF00F0C0CFA03F7BC4305FA8E
:1005A00003FC4CEA040491F803C0BCF1280F05D108
:1005B00000F1080C08FA0CF8C2F8148091F803C096
:1005C000BCF1480F07D100F1080C4FF0010808FA00
:1005D0000CF8C2F81080401C0828CED35460BDE847
:1005E000F0810246002093680B400BB1012000E02F
:1005F000002070474161704701617047C1607047DA
:1006000000BFFEE708B50121102000F0DBF8012152
:10061000082000F0D7F84FF48060ADF800004820C3
:100620008DF8030003208DF8020069461048FFF79B
:100630004DFF4FF40050ADF8000048208DF8030046
:1006400003208DF8020069460A48FFF73FFF10209B
:10065000ADF8000048208DF8030003208DF802005B
:1006600069460448FFF732FF00F0C8FB08BD0000F0
:10067000000C01400010014010B508210348FFF7AD
:10068000B9FF04210148FFF7B7FF10BD0008014082
:1006900008B50121042000F095F80420ADF8000011
:1006A00010208DF8030003208DF8020069460948E8
:1006B000FFF70CFF0820ADF8000069460548FFF77A
:1006C00005FF04210348FFF795FF08210148FFF7C4
:1006D00091FF08BD0008014010B504210348FFF751
:1006E00089FF08210148FFF787FF10BD000801407E
:1006F00010B504210348FFF77DFF08210148FFF7EB
:1007000079FF10BD0008014010B5FFF78FFE3420BF
:1007100000F0A2FA0C2000F09FFA062000F09CFAEC
:10072000012000F099FA00200149087010BD000076
:100730002800002000BFFEE77047000070B50021D0
:1007400000230F22C47804B3154C246804F4E06439
:10075000C4F5E064210AC1F10403CA40447804FAF4
:1007600003F184781440214309010E4C0678A15509
:10077000047804F01F050124AC4005786D11AD002C
:1007800005F1E025C5F8004109E0047804F01F05F3
:100790000124AC40044D0678761145F8264070BD22
:1007A0000CED00E000E400E080E100E002490143DC
:1007B000024A1160704700000000FA050CED00E0ED
:1007C0007047000029B1064A92690243044B9A61BE
:1007D00004E0034A92698243014B9A61704700002A
:1007E0000010024030B500210022002400232D4DCE
:1007F0006D6805F00C0121B1042905D0082923D129
:1008000005E0294D056022E0274D05601FE0254DDC
:100810006D6805F47012234D6D6805F4803402256F
:1008200005EB92421CB9214D554305600BE01D4D6F
:100830006D6805F400351DB11C4D5543056002E09F
:10084000194D5543056002E0174D056000BF00BF1C
:10085000144D6D6805F0F0010909154D6B5C0568D4
:10086000DD4045600F4D6D6805F4E061090A104DEB
:100870006B5C4568DD4085600A4D6D6805F460512C
:10088000C90A0B4D6B5C4568DD40C560054D6D6860
:1008900005F44041890B074D6B5CC568B5FBF3F56A
:1008A000056130BD0010024000127A0000093D00D1
:1008B0001400002024000020704710B500F002F85A
:1008C00010BD00000CB50020019000903348006876
:1008D00040F480303149086000BF3048006800F4BF
:1008E000003000900198401C0190009818B90198C0
:1008F000B0F5A06FF1D12948006800F4003010B1C4
:100900000120009001E0002000900098012843D1D0
:100910002348006840F0100021490860084600683C
:1009200020F0030008600846006840F002000860FC
:100930001A484068194948600846406848600846B7
:10094000406840F4806048600846406820F47C10AD
:1009500048600846406840F4E8104860084600686F
:1009600040F08070086000BF0C48006800F0007024
:100970000028F9D00948406820F003000749486082
:100980000846406840F00200486000BF03484068E5
:1009900000F00C000828F9D10CBD00000010024046
:1009A00000200240042808D14FF0E021096941F0FD
:1009B00004014FF0E022116107E04FF0E0210969E6
:1009C00021F004014FF0E0221161704770470000F0
:1009D00010B51348006840F001001149086008464E
:1009E0004068104908400E494860084600680E49B2
:1009F00008400B4908600846006820F48020086021
:100A00000846406820F4FE0048604FF41F008860EC
:100A1000FFF753FF4FF000600449086010BD00006D
:100A2000001002400000FFF8FFFFF6FE08ED00E0B6
:100A300010B540F225511D4800F04AF810B31B488C
:100A400000F002F9C4B21A48008800F40040C8B9A6
:100A50001748008800F4804060B10A2C03D00020C1
:100A60001349088020E01248008840F400401049F3
:100A7000088019E00D2C06D10D48008840F4804014
:100A80000B49088010E00A480088C0F30D000949AE
:100A90000C5407480088401C054908800846008817
:100AA000C72801DD0020088010BD0000003801408B
:100AB000340000203800002021B1828942F4005225
:100AC000828104E082894DF6FF731A40828170476B
:100AD00070B50246002400230025002040F66A1667
:100AE000B14200D100BFC1F3421501F01F0301263E
:100AF00006FA03F3012D02D19689334006E0022D58
:100B000002D1168A334001E0968A33400C12012646
:100B100006FA04F41688344013B10CB1012000E049
:100B2000002070BDF0B503460024002600250020FB
:100B300040F66A17B94200D100BF1846C1F342140B
:100B400001F01F06012707FA06F5012C01D10C3030
:100B500004E0022C01D1103000E014301AB1076813
:100B60002F43076002E00768AF430760F0BD000055
:100B70002DE9F04786B005460E460024A24600BF88
:100B8000A1460027B08900B100BF2F462C8A4CF641
:100B9000FF700440F08804432C82AC894EF6F310B9
:100BA0000440B08831890843718908430443AC810B
:100BB000AC8A4FF6FF400440B0890443AC8201A8E0
:100BC000FFF710FE1F48874202D1DDF810A001E0B8
:100BD000DDF80CA0A88900F4004040B10AEBCA007F
:100BE00000EB0A1031684900B0FBF1F807E00AEBAE
:100BF000CA0000EB0A1031688900B0FBF1F86420EC
:100C0000B8FBF0F004012009642101FB1089A889D8
:100C100000F4004040B1322000EBC900B0FBF1F01D
:100C200000F00700044308E0322000EB09106421C3
:100C3000B0FBF1F000F00F0004432C8106B0BDE8DA
:100C4000F08700000038014001468888C0F30800A2
:100C5000704700BFFEE7000010B50446FFF710FB29
:100C60004FF400510D48FFF7C5FC4FF480410B488D
:100C7000FFF7C0FC4FF400410848FFF7BBFC4FF4FE
:100C800000410648FFF7B8FC21460548FFF7B6FCCF
:100C90004FF400410148FFF7ADFC10BD00140140C6
:100CA0000018014010B50446FFF7EAFA4FF400516E
:100CB0000E48FFF7A1FC4FF480410C48FFF79AFC67
:100CC0004FF400410948FFF795FC4FF400410748F5
:100CD000FFF792FC04F47F410548FFF78FFC4FF4C7
:100CE00000410248FFF786FC10BD000000140140DF
:100CF0000018014070B505460C462846FFF7ACFFCA
:100D000003E014F8010BFFF7CDFF20780028F8D19D
:100D100070BD00BF7047000010B56FF00400FFF712
:100D200041FE0A4800680A49B0FBF1F00949087021
:100D30000846007800EB4001C1EBC0104FF6FF7190
:100D400001EAC0000449088010BD00000000002036
:100D500000127A002A0000202C0000200146114ACF
:100D600012884A434FF0E0235A6100229A611A46E2
:100D7000126942F001021A6100BF4FF0E0221069CF
:100D800000F001021AB100F48032002AF5D04FF0D1
:100D9000E022126922F001024FF0E0231A610022E2
:100DA0009A6170472C000020FFF7B6FF4FF4A06057
:100DB000FFF7FCFC4FF4E13000F07AF8FFF7A4FCF9
:100DC00006A18020FFF796FFFFF762FCFFF71AFCF1
:100DD00003E04FF47A70FFF7C1FFFAE7546865202B
:100DE00073797374656D20697320696E69746961C4
:100DF0006C697A696E672E2E2E0000000EB50121F7
:100E00000846FFF7DFFC0A210120FFF73FFB4FF404
:100E10008060019001208DF80A0000208DF8080004
:100E20000C208DF8090001A8FFF7B6FA0421022072
:100E3000FFF72CFB1020019001208DF80A00002004
:100E40008DF8080010208DF8090001A8FFF7A4FA1A
:100E50000D210220FFF71AFB4FF40050019001A86A
:100E6000FFF79AFA28208DF8000001208DF8030082
:100E700002208DF8010001208DF802006846FFF77E
:100E80005DFC0A208DF8000001208DF8030002208F
:100E90008DF8010000208DF802006846FFF74EFC37
:100EA00028208DF800006846FFF748FC0EBD0000C2
:100EB00010B586B00446012144F20400FFF782FC1D
:100EC0004FF40070ADF8140003208DF816001820C0
:100ED0008DF8170005A91C48FFF7F8FA4FF4806059
:100EE000ADF8140004208DF8170005A91648FFF787
:100EF000EDFA25208DF8000003208DF801008DF813
:100F0000020001208DF803006846FFF717FC0194EA
:100F10000020ADF80800ADF80A00ADF80C00ADF8FF
:100F200010000C20ADF80E0001A90848FFF720FEC4
:100F3000012240F225510548FFF7F4FD0121034845
:100F4000FFF7BAFD06B010BD0008014000380140AF
:100F5000700F000800000020380000006C0100083D
:100F6000A80F0008380000202807000088010008AA
:100F700000A24A0400000000000000000102030477
:100F8000060708090000000001020304010203042F
:100F9000060708090204060800000000000000001F
:080FA000000000000000000049
:0400000508000131BD
:00000001FF
